:100000000C942A000C94650C0C94920C0C944700F0
:100010000C9447000C9447000C9447000C94470044
:100020000C9447000C9447000C9447000C94470034
:100030000C9447000C9447000C9447000C94470024
:100040000C94570E0C9447000C94BF0C0C94470072
:100050000C94470011241FBECFE5D8E0DEBFCDBF12
:1000600011E0A0E6B0E0E4EFFCE202C005900D92E2
:10007000A239B107D9F711E0A2E9B1E001C01D92A0
:10008000A03AB107E1F70E9462130C9478160C9421
:100090000000EF92FF920F931F937B018C0120E0F1
:1000A00030E040E05FE40E94F50388238CF0C80153
:1000B000B70120E030E040E05FE40E94C1010E940F
:1000C000B3049B01AC01205030404040504806C072
:1000D000C801B7010E94B3049B01AC01B901CA0178
:1000E0001F910F91FF90EF900895A0E0B0E0EBE733
:1000F000F0E00C94A013DC012B01FA019C919230EA
:1001000008F439C1EB018881823008F433C194309E
:1001100069F4843009F02FC111969C91119789815F
:10012000981709F428C1ACE7B0E025C1843009F480
:1001300021C18230A9F4923009F01DC19A01AD01AC
:1001400088E0EA010990AE01E90109929E0181501F
:10015000C1F7E201898111969C918923818308C1AD
:10016000923009F407C112962D903C901397EB0141
:100170008A819B811496AD90BD90CD90DC901797AD
:10018000EC80FD800E811F819101281B390BB90184
:1001900037FF04C066277727621B730B6032710537
:1001A0000CF061C0121613066CF537014801062EDB
:1001B00004C096948794779467940A94D2F721E0C8
:1001C00030E040E050E004C0220F331F441F551FB1
:1001D0006A95D2F721503040404050402E213F21B7
:1001E00040235123211531054105510521F021E01E
:1001F00030E040E050E079018A01E628F72808293C
:1002000019293CC0232BD1F1260E371E350146019A
:10021000062E04C096948794779467940A94D2F734
:1002200021E030E040E050E004C0220F331F441FC3
:10023000551F6A95D2F721503040404050402A2146
:100240003B214C215D21211531054105510521F04E
:1002500021E030E040E050E059016A01A628B728CB
:10026000C828D9280BC0821593052CF01C01AA249C
:10027000BB24650103C0EE24FF24870111969C91E5
:10028000D20111968C91981709F445C0992339F041
:10029000A80197012A193B094C095D0906C0A6016E
:1002A00095012E193F09400B510B57FD08C01182D3
:1002B0003382228224833583468357831DC081E0A5
:1002C00081833382228288279927DC01821B930B4A
:1002D000A40BB50B84839583A683B7830DC0220F2F
:1002E000331F441F551F24833583468357838281E0
:1002F000938101979383828324813581468157813D
:10030000DA01C9010197A109B1098F5F9F4FAF4F72
:10031000BF4328F30BC0918333822282EA0CFB1C7B
:100320000C1D1D1DE482F5820683178383E0808304
:10033000248135814681578157FF1AC0C901AA27F8
:1003400097FDA095BA2F81709070A070B0705695EF
:10035000479537952795822B932BA42BB52B848318
:100360009583A683B7838281938101969383828349
:10037000DF0101C0D201CD01CDB7DEB7E2E10C94BF
:10038000BC13A0E2B0E0E7ECF1E00C94AC1369839D
:100390007A838B839C832D833E834F835887E9E048
:1003A000EE2EF12CEC0EFD1ECE010196B7010E943F
:1003B000A4068E010F5E1F4FCE010596B8010E9464
:1003C000A4068A8991E089278A8BC701B801AE010A
:1003D000475E5F4F0E9475000E94CF05A096E6E041
:1003E0000C94C813A0E2B0E0E8EFF1E00C94AC1379
:1003F00069837A838B839C832D833E834F835887C5
:10040000F9E0EF2EF12CEC0EFD1ECE010196B701A6
:100410000E94A4068E010F5E1F4FCE010596B80103
:100420000E94A406C701B801AE01475E5F4F0E945B
:1004300075000E94CF05A096E6E00C94C813A0E2D8
:10044000B0E0E5E2F2E00C94A01369837A838B8339
:100450009C832D833E834F835887CE010196BE0136
:10046000675F7F4F0E94A406CE010596BE016F5EB6
:100470007F4F0E94A4069985923088F08989823046
:10048000C8F0943019F4823051F404C0843029F457
:10049000923081F48CE790E0C6C0923049F420E0BD
:1004A0009A858A89981321E02A87CE010996BBC0D4
:1004B000823049F420E09A858A89981321E02A8BBA
:1004C000CE014196B0C02D843E844F8458886D88FB
:1004D0007E888F88988CEE24FF248701AA24BB2471
:1004E000650140E050E060E070E0E0E0F0E0C10174
:1004F00081709070892BE9F0E60CF71C081D191D1E
:100500009A01AB012A0D3B1D4C1D5D1D80E090E062
:10051000A0E0B0E0E614F7040805190520F481E036
:1005200090E0A0E0B0E0BA01A901480F591F6A1F8E
:100530007B1FAA0CBB1CCC1CDD1C97FE08C081E0F5
:1005400090E0A0E0B0E0A82AB92ACA2ADB2A3196B6
:10055000E032F10549F0660C771C881C991C569412
:10056000479437942794C3CFFA85EA892B893C892D
:100570008B859C85280F391F2E5F3F4F17C0CA01FE
:1005800081709070892B61F016950795F794E79428
:1005900080E090E0A0E0B0E8E82AF92A0A2B1B2BC3
:1005A00076956795579547952F5F3F4F77FDE7CF36
:1005B0000CC0440F551F661F771F17FD4160EE0CDE
:1005C000FF1C001F111F21503040403090E05907A0
:1005D00090E0690790E4790760F32B8F3C8FDB0193
:1005E000CA018F779070A070B07080349105A1051A
:1005F000B10561F447FD0AC0E114F10401051105DC
:1006000029F0405C5F4F6F4F7F4F40781A8EFE1786
:1006100011F081E08A8F4D8F5E8F6F8F78A383E01A
:10062000898FCE0149960E94CF05A096E2E10C94F5
:10063000BC13A8E1B0E0EFE1F3E00C94A8136983E8
:100640007A838B839C832D833E834F835887B9E0C5
:10065000EB2EF12CEC0EFD1ECE010196B7010E948F
:10066000A4068E010F5E1F4FCE010596B8010E94B1
:10067000A4062985223008F47EC03989323010F46E
:10068000B8017CC08A859A8989278A87243011F02D
:10069000223031F4231709F06EC06CE770E06EC0B1
:1006A000343039F41D861E861F86188A1C861B86E8
:1006B00004C0323021F484E08987B7015FC02B8504
:1006C0003C858B899C89281B390B3C872B87ED84C3
:1006D000FE840F851889AD88BE88CF88D88CEA142F
:1006E000FB040C051D0540F4EE0CFF1C001F111F40
:1006F000215030403C872B8720E030E040E050E044
:1007000080E090E0A0E0B0E460E070E0EA14FB0478
:100710000C051D0540F0282B392B4A2B5B2BEA18C2
:10072000FB080C091D09B695A79597958795EE0CC2
:10073000FF1C001F111F6F5F7F4F6F31710531F775
:10074000DA01C9018F779070A070B0708034910584
:10075000A105B10561F427FD0AC0E114F10401050A
:10076000110529F0205C3F4F4F4F5F4F20782D87B8
:100770003E874F87588BBE01675F7F4FCB010E943A
:10078000CF056896EAE00C94C413A8E1B0E0EBEC66
:10079000F3E00C94AC1369837A838B839C832D8361
:1007A0003E834F83588789E0E82EF12CEC0EFD1E26
:1007B000CE010196B7010E94A4068E010F5E1F4F65
:1007C000CE010596B8010E94A4068985823040F0CA
:1007D0008989823028F0C701B8010E941C0701C036
:1007E0008FEF6896E6E00C94C813A8E1B0E0EBEF59
:1007F000F3E00C94AC1369837A838B839C832D8301
:100800003E834F83588789E0E82EF12CEC0EFD1EC5
:10081000CE010196B7010E94A4068E010F5E1F4F04
:10082000CE010596B8010E94A4068985823040F069
:100830008989823028F0C701B8010E941C0701C0D5
:100840008FEF6896E6E00C94C813A8E1B0E0EBE205
:10085000F4E00C94AC1369837A838B839C832D839F
:100860003E834F83588789E0E82EF12CEC0EFD1E65
:10087000CE010196B7010E94A4068E010F5E1F4FA4
:10088000CE010596B8010E94A4068985823040F009
:100890008989823028F0C701B8010E941C0701C075
:1008A00081E06896E6E00C94C813A8E0B0E0EBE5C0
:1008B000F4E00C94A9139B01AC0183E08983DA0175
:1008C000C9018827B7FD83959927AA27BB27B82E8A
:1008D000211531054105510519F482E089833AC09B
:1008E0008823A9F0203080E0380780E0480780E8BE
:1008F000580729F460E070E080E09FEC30C0EE24FF
:10090000FF248701E21AF30A040B150B02C07901D8
:100910008A018EE1C82ED12CDC82CB82ED82FE8250
:100920000F831887C801B7010E9480050197181628
:10093000190684F4082E04C0EE0CFF1C001F111FC2
:100940000A94D2F7ED82FE820F831887C81AD90A5B
:10095000DC82CB82BA82CE0101960E94CF05289616
:10096000E9E00C94C513ACE0B0E0E9EBF4E00C94E2
:10097000B01369837A838B839C83CE010196BE0179
:100980006B5F7F4F0E94A4068D81823061F18230BF
:1009900050F1843021F48E81882351F12EC02F81B3
:1009A000388537FD20C06E812F3131051CF066235C
:1009B000F9F023C08EE190E0821B930B29853A85E4
:1009C0004B855C8504C056954795379527958A9544
:1009D000D2F76623B1F050954095309521953F4F61
:1009E0004F4F5F4F0EC020E030E040E050E009C0C4
:1009F0002FEF3FEF4FEF5FE704C020E030E040E033
:100A000050E8B901CA012C96E2E00C94CC13A8E09E
:100A1000B0E0EDE0F5E00C94A8137B018C016115CA
:100A200071058105910519F482E0898360C083E036
:100A300089838EE1C82ED12CDC82CB82ED82FE82AE
:100A40000F831887C801B7010E948005FC01319708
:100A5000F7FF3BC0222733272E1B3F0B57016801AE
:100A6000022E04C0D694C794B794A7940A94D2F7E0
:100A700040E050E060E070E081E090E0A0E0B0E0B5
:100A800004C0880F991FAA1FBB1F2A95D2F7019790
:100A9000A109B1098E219F21A023B1230097A105AF
:100AA000B10521F041E050E060E070E04A295B29A7
:100AB0006C297D294D835E836F8378878EE190E07A
:100AC0008E1B9F0B9C838B8312C0309781F00E2E60
:100AD00004C0EE0CFF1C001F111F0A94D2F7ED8218
:100AE000FE820F831887CE1ADF0ADC82CB821A823D
:100AF000CE0101960E94CF052896EAE00C94C4131B
:100B0000EF92FF920F931F937B018C0180E0E81618
:100B100080E0F80681E0080780E0180788F48FEF8E
:100B2000E816F1040105110531F028F088E090E0A5
:100B3000A0E0B0E017C080E090E0A0E0B0E012C01C
:100B400080E0E81680E0F80680E0080781E01807FA
:100B500028F088E190E0A0E0B0E004C080E190E0FF
:100B6000A0E0B0E020E230E040E050E0281B390B8C
:100B70004A0B5B0B04C016950795F794E7948A958A
:100B8000D2F7F701EC57FF4F8081281B310941094B
:100B90005109C9011F910F91FF90EF900895DF92C5
:100BA000EF92FF920F931F93FC01E480F580068182
:100BB0001781D1808081823048F480E090E0A0E10C
:100BC000B0E0E82AF92A0A2B1B2BA5C0843009F4CF
:100BD0009FC0823021F4EE24FF24870105C0E11478
:100BE000F1040105110519F4E0E0F0E096C062811E
:100BF00073819FEF623879070CF05BC022E83FEF0A
:100C0000261B370B2A3131052CF020E030E040E084
:100C100050E02AC0B801A701022E04C0769567955E
:100C2000579547950A94D2F781E090E0A0E0B0E0B4
:100C300004C0880F991FAA1FBB1F2A95D2F70197DE
:100C4000A109B1098E219F21A023B1230097A105FD
:100C5000B10521F081E090E0A0E0B0E09A01AB01A5
:100C6000282B392B4A2B5B2BDA01C9018F77907027
:100C7000A070B07080349105A105B10539F427FF4B
:100C800009C0205C3F4F4F4F5F4F04C0215C3F4F76
:100C90004F4F5F4FE0E0F0E02030A0E03A07A0E0E7
:100CA0004A07A0E45A0710F0E1E0F0E079018A0178
:100CB00027C06038710564F5FB01E158FF4FD8018A
:100CC000C7018F779070A070B07080349105A10536
:100CD000B10539F4E7FE0DC080E490E0A0E0B0E09B
:100CE00004C08FE390E0A0E0B0E0E80EF91E0A1F18
:100CF0001B1F17FF05C016950795F794E7943196CB
:100D000087E016950795F794E7948A95D1F705C083
:100D1000EE24FF248701EFEFF0E06E2F6795662742
:100D20006795902F9F77D794DD24D7948E2F869543
:100D3000492F462B582F5D29B701CA011F910F91EA
:100D4000FF90EF90DF900895FC01DB01408151811D
:100D50002281622F6F7770E0221F2227221F93814A
:100D6000892F880F822B282F30E0991F9927991FF0
:100D700011969C93119721153105A9F5411551053F
:100D80006105710511F482E037C082E89FEF139688
:100D90009C938E9312979A01AB0167E0220F331F49
:100DA000441F551F6A95D1F783E08C930DC0220F25
:100DB000331F441F551F12968D919C9113970197D5
:100DC00013969C938E931297203080E0380780E032
:100DD000480780E4580758F314962D933D934D939C
:100DE0005C93179708952F3F310579F4411551050C
:100DF0006105710519F484E08C93089564FF03C0C4
:100E000081E08C9312C01C9210C02F573040139673
:100E10003C932E93129783E08C9387E0440F551FE9
:100E2000661F771F8A95D1F7706414964D935D9372
:100E30006D937C93179708951F93DC01FB019C91A0
:100E4000923008F447C08081823008F443C0943067
:100E500051F411961C91843099F58181682F70E0CE
:100E6000611B71093FC0843021F0923031F482302F
:100E7000B9F18181882389F12DC011961C911197B8
:100E80008230F1F081811817D9F412962D913C919E
:100E90001397828193818217930794F0281739075B
:100EA000BCF014968D919D910D90BC91A02D248144
:100EB000358146815781281739074A075B0718F49F
:100EC000112341F00AC082179307A407B50740F425
:100ED000112319F061E070E005C06FEF7FEF02C0F1
:100EE00060E070E0CB011F910895DF93CF9300D0B5
:100EF00000D000D0CDB7DEB76B837C838D839E831B
:100F000019C01A82198205C089819A8101969A8333
:100F1000898389819A812FE0803A9207A8F38B8197
:100F20009C81AD81BE810197A109B1098B839C830E
:100F3000AD83BE838B819C81AD81BE810097A1056D
:100F4000B105F9F626960FB6F894DEBF0FBECDBFF9
:100F5000CF91DF910895DF93CF93CDB7DEB7EAE36A
:100F6000F0E01082E7E3F0E01082E4E3F0E01082CA
:100F7000E1E3F0E01082EBE3F0E01082E8E3F0E080
:100F80001082E5E3F0E01082E2E3F0E01082A0E5F9
:100F9000B0E0E0E5F0E080818B7F8C93CF91DF9132
:100FA0000895DF93CF93CDB7DEB72E970FB6F894A1
:100FB000DEBF0FBECDBF89836A834B838A818830B1
:100FC00018F021E02E8712C18981282F30E03D875B
:100FD0002C878C859D858130910509F452C02C8524
:100FE0003D85223031052CF48C859D85009771F06C
:100FF000F9C02C853D852230310509F47DC08C85F2
:101000009D858330910509F4B2C0ECC08B81282FF7
:1010100030E03B872A878A859B85009731F02A85B7
:101020003B8521303105B1F029C0AAE3B0E0EAE305
:10103000F0E08081482F8A81282F30E081E090E025
:10104000022E02C0880F991F0A94E2F7809584232C
:101050008C93CBC0AAE3B0E0EAE3F0E08081482FB4
:101060008A81282F30E081E090E0022E02C0880FB4
:10107000991F0A94E2F7842B8C93B7C031E03E8726
:10108000B5C08B81282F30E03987288788859985DE
:10109000009731F02885398521303105B1F029C01C
:1010A000A7E3B0E0E7E3F0E08081482F8A81282FB2
:1010B00030E081E090E0022E02C0880F991F0A9470
:1010C000E2F7809584238C9390C0A7E3B0E0E7E338
:1010D000F0E08081482F8A81282F30E081E090E085
:1010E000022E02C0880F991F0A94E2F7842B8C937A
:1010F0007CC031E03E877AC08B81282F30E03F836F
:101100002E838E819F81009731F02E813F81213087
:101110003105B1F029C0A4E3B0E0E4E3F0E0808160
:10112000482F8A81282F30E081E090E0022E02C013
:10113000880F991F0A94E2F7809584238C9355C0F9
:10114000A4E3B0E0E4E3F0E08081482F8A81282F17
:1011500030E081E090E0022E02C0880F991F0A94CF
:10116000E2F7842B8C9341C031E03E873FC08B81F6
:10117000282F30E03D832C838C819D81009731F0B6
:101180002C813D8121303105B1F029C0A1E3B0E0CF
:10119000E1E3F0E08081482F8A81282F30E081E070
:1011A00090E0022E02C0880F991F0A94E2F7809502
:1011B00084238C931AC0A1E3B0E0E1E3F0E08081E6
:1011C000482F8A81282F30E081E090E0022E02C073
:1011D000880F991F0A94E2F7842B8C9306C031E0A4
:1011E0003E8704C081E08E8701C01E868E852E96C4
:1011F0000FB6F894DEBF0FBECDBFCF91DF9108953B
:10120000DF93CF93CDB7DEB72E970FB6F894DEBF3E
:101210000FBECDBF89836A834B838A81883018F0E3
:1012200021E02E870BC18981282F30E03D872C8754
:101230008C859D858130910509F451C02C853D85B3
:10124000223031052CF48C859D85009771F0F5C016
:101250002C853D852230310509F47BC08C859D8528
:101260008330910509F4AFC0E8C08B81282F30E0AE
:101270003B872A878A859B850097C9F02A853B850D
:101280002130310549F5ABE3B0E0EBE3F0E08081DC
:10129000482F8A81282F30E081E090E0022E02C0A2
:1012A000880F991F0A94E2F7842B8C93C6C0ABE396
:1012B000B0E0EBE3F0E08081482F8A81282F30E016
:1012C00081E090E0022E02C0880F991F0A94E2F795
:1012D000809584238C93B1C031E03E87AFC08B8171
:1012E000282F30E039872887888599850097C9F0AD
:1012F000288539852130310549F5A8E3B0E0E8E3D8
:10130000F0E08081482F8A81282F30E081E090E052
:10131000022E02C0880F991F0A94E2F7842B8C9347
:101320008CC0A8E3B0E0E8E3F0E08081482F8A8138
:10133000282F30E081E090E0022E02C0880F991F34
:101340000A94E2F7809584238C9377C031E03E873E
:1013500075C08B81282F30E03F832E838E819F8143
:101360000097C9F02E813F812130310549F5A5E371
:10137000B0E0E5E3F0E08081482F8A81282F30E05B
:1013800081E090E0022E02C0880F991F0A94E2F7D4
:10139000842B8C9352C0A5E3B0E0E5E3F0E08081BC
:1013A000482F8A81282F30E081E090E0022E02C091
:1013B000880F991F0A94E2F7809584238C933DC08F
:1013C00031E03E873BC08B81282F30E03D832C836A
:1013D0008C819D810097C9F02C813D8121303105A0
:1013E00049F5A2E3B0E0E2E3F0E08081482F8A8192
:1013F000282F30E081E090E0022E02C0880F991F74
:101400000A94E2F7842B8C9318C0A2E3B0E0E2E3E5
:10141000F0E08081482F8A81282F30E081E090E041
:10142000022E02C0880F991F0A94E2F78095842348
:101430008C9303C031E03E8701C01E868E852E96B8
:101440000FB6F894DEBF0FBECDBFCF91DF910895E8
:10145000DF93CF9300D000D00F92CDB7DEB7898352
:101460006A838A81883018F021E02D8373C08981D6
:10147000282F30E03C832B838B819C818130910528
:1014800049F12B813C81223031052CF48B819C81E8
:10149000009761F05BC02B813C812230310571F1F6
:1014A0008B819C8183309105E9F150C0ABE3B0E0C2
:1014B000EBE3F0E08081482F8A81282F30E081E043
:1014C00090E0022E02C0880F991F0A94E2F7842749
:1014D0008C933FC0A8E3B0E0E8E3F0E08081482FC0
:1014E0008A81282F30E081E090E0022E02C0880F30
:1014F000991F0A94E2F784278C932BC0A5E3B0E0F0
:10150000E5E3F0E08081482F8A81282F30E081E0F8
:1015100090E0022E02C0880F991F0A94E2F78427F8
:101520008C9317C0A2E3B0E0E2E3F0E08081482FA3
:101530008A81282F30E081E090E0022E02C0880FDF
:10154000991F0A94E2F784278C9303C091E09D834E
:1015500001C01D828D810F900F900F900F900F9002
:10156000CF91DF910895DF93CF93CDB7DEB7279763
:101570000FB6F894DEBF0FBECDBF89836A835C834C
:101580004B838A81883018F021E02F8371C08981D4
:10159000482F50E05E834D838D819E81813091057F
:1015A00059F12D813E812230310534F44D815E8127
:1015B0004115510569F05BC08D819E818230910596
:1015C00079F12D813E812330310509F43DC04FC0B2
:1015D000E9E3F0E08081282F30E08A81882F90E0D5
:1015E000A90102C0559547958A95E2F7CA01817015
:1015F000EB81FC8180833BC0E6E3F0E08081282F13
:1016000030E08A81882F90E0A90102C05595479566
:101610008A95E2F7CA018170EB81FC81808327C043
:10162000E3E3F0E08081282F30E08A81882F90E08A
:10163000A90102C0559547958A95E2F7CA018170C4
:10164000EB81FC81808313C0E0E3F0E08081282FF0
:1016500030E08A81882F90E0A90102C05595479516
:101660008A95E2F7CA018170EB81FC8180831F8239
:101670008F8127960FB6F894DEBF0FBECDBFCF91F6
:10168000DF910895DF93CF93CDB7DEB72E970FB6D6
:10169000F894DEBF0FBECDBF89836A834B838A81F6
:1016A000883018F021E02E8706C18981282F30E08C
:1016B0003D872C878C859D858130910509F44FC02D
:1016C0002C853D85223031052CF48C859D85009735
:1016D00071F0EDC02C853D852230310509F477C0CD
:1016E0008C859D858330910509F4A9C0E0C08B816C
:1016F000282F30E03B872A878A859B85009731F029
:101700002A853B8521303105B1F0D4C0ABE3B0E090
:10171000EBE3F0E08081482F8A81282F30E081E0E0
:1017200090E0022E02C0880F991F0A94E2F780957C
:1017300084238C93BFC0ABE3B0E0EBE3F0E08081A7
:10174000482F8A81282F30E081E090E0022E02C0ED
:10175000880F991F0A94E2F7842B8C93ABC08B817E
:10176000282F30E03987288788859985009731F0C0
:101770002885398521303105B1F09CC0A8E3B0E05F
:10178000E8E3F0E08081482F8A81282F30E081E073
:1017900090E0022E02C0880F991F0A94E2F780950C
:1017A00084238C9387C0A8E3B0E0E8E3F0E0808175
:1017B000482F8A81282F30E081E090E0022E02C07D
:1017C000880F991F0A94E2F7842B8C9373C08B8146
:1017D000282F30E03F832E838E819F81009731F048
:1017E0002E813F8121303105B1F064C0A5E3B0E026
:1017F000E5E3F0E08081482F8A81282F30E081E006
:1018000090E0022E02C0880F991F0A94E2F780959B
:1018100084238C934FC0A5E3B0E0E5E3F0E0808142
:10182000482F8A81282F30E081E090E0022E02C00C
:10183000880F991F0A94E2F7842B8C933BC08B810D
:10184000282F30E03D832C838C819D81009731F0DF
:101850002C813D8121303105B1F02CC0A2E3B0E0F4
:10186000E2E3F0E08081482F8A81282F30E081E098
:1018700090E0022E02C0880F991F0A94E2F780952B
:1018800084238C9317C0A2E3B0E0E2E3F0E0808110
:10189000482F8A81282F30E081E090E0022E02C09C
:1018A000880F991F0A94E2F7842B8C9303C031E0D0
:1018B0003E8701C01E868E852E960FB6F894DEBF39
:1018C0000FBECDBFCF91DF9108951F920F920FB63B
:1018D0000F9211242F933F934F935F936F937F93B6
:1018E0008F939F93AF93BF93EF93FF93DF93CF9328
:1018F000CDB7DEB7E0919201F09193010995CF91B8
:10190000DF91FF91EF91BF91AF919F918F917F9167
:101910006F915F914F913F912F910F900FBE0F905C
:101920001F9018951F920F920FB60F9211242F93AC
:101930003F934F935F936F937F938F939F93AF9357
:10194000BF93EF93FF93DF93CF93CDB7DEB7E091D3
:101950009401F09195010995CF91DF91FF91EF915D
:10196000BF91AF919F918F917F916F915F914F91B7
:101970003F912F910F900FBE0F901F9018951F92BF
:101980000F920FB60F9211242F933F934F935F93B3
:101990006F937F938F939F93AF93BF93EF93FF9337
:1019A000DF93CF93CDB7DEB7E0919601F091970129
:1019B0000995CF91DF91FF91EF91BF91AF919F91E9
:1019C0008F917F916F915F914F913F912F910F90E8
:1019D0000FBE0F901F901895DF93CF9300D000D0CB
:1019E000CDB7DEB78A831982ABE5B0E0EBE5F0E076
:1019F000808180648C938A81282F30E03C832B8304
:101A00008B819C81009731F02B813C812130310505
:101A100081F01EC0A5E5B0E0E5E5F0E080818260E0
:101A20008C93A5E5B0E0E5E5F0E0808181608C93E2
:101A300011C0A5E5B0E0E5E5F0E0808182608C931F
:101A4000A5E5B0E0E5E5F0E080818E7F8C9302C0F3
:101A500081E0898389810F900F900F900F90CF9133
:101A6000DF910895DF93CF9300D0CDB7DEB79A838F
:101A7000898389819A81909393018093920180E078
:101A80000F900F90CF91DF910895DF93CF9300D007
:101A900000D0CDB7DEB78A831982ABE5B0E0EBE5C5
:101AA000F0E0808180688C938A81282F30E03C832D
:101AB0002B838B819C81009731F02B813C812130DD
:101AC000310581F01EC0A5E5B0E0E5E5F0E08081DC
:101AD00088608C93A5E5B0E0E5E5F0E08081846066
:101AE0008C9311C0A5E5B0E0E5E5F0E08081886069
:101AF0008C93A5E5B0E0E5E5F0E080818B7F8C93E9
:101B000002C081E0898389810F900F900F900F9020
:101B1000CF91DF910895DF93CF9300D0CDB7DEB79B
:101B20009A83898389819A81909395018093940106
:101B300080E00F900F90CF91DF910895DF93CF93C6
:101B400000D000D0CDB7DEB78A831982ABE5B0E014
:101B5000EBE5F0E0808180628C938A81282F30E071
:101B60003C832B838B819C81009731F02B813C81BE
:101B70002130310549F010C0A4E5B0E0E4E5F0E023
:101B8000808180648C930AC0A4E5B0E0E4E5F0E0D5
:101B900080818F7B8C9302C081E0898389810F9043
:101BA0000F900F900F90CF91DF910895DF93CF9317
:101BB00000D0CDB7DEB79A83898389819A819093CB
:101BC00097018093960180E00F900F90CF91DF9165
:101BD0000895DF93CF93CDB7DEB7A7E2B0E0E7E299
:101BE000F0E080818F778C93A7E2B0E0E7E2F0E04D
:101BF000808180648C93A6E2B0E0E6E2F0E0808130
:101C000080688C93A6E2B0E0E6E2F0E0808181603B
:101C10008C93A6E2B0E0E6E2F0E0808184608C93F1
:101C2000CF91DF910895DF93CF9300D000D0CDB74F
:101C3000DEB789838981282F30E03C832B838B8119
:101C40009C81009731F02B813C812130310549F096
:101C500010C0A6E2B0E0E6E2F0E0808188608C93FC
:101C60000BC0A6E2B0E0E6E2F0E08081877F8C93D3
:101C700003C031E03A8301C01A828A810F900F902D
:101C80000F900F90CF91DF910895DF93CF9300D005
:101C9000CDB7DEB79A83898389819A819093990120
:101CA000809398010F900F90CF91DF9108951F922C
:101CB0000F920FB60F9211242F933F934F935F9380
:101CC0006F937F938F939F93AF93BF93EF93FF9304
:101CD000DF93CF93CDB7DEB7E0919801F0919901F2
:101CE0000995CF91DF91FF91EF91BF91AF919F91B6
:101CF0008F917F916F915F914F913F912F910F90B5
:101D00000FBE0F901F901895DF93CF9300D0CDB7E3
:101D1000DEB789838981883018F081E08A8317C013
:101D2000A7E2B0E0E7E2F0E08081887F8C93A7E251
:101D3000B0E0E7E2F0E090818981892B8C93A6E204
:101D4000B0E0E6E2F0E0808180648C931A828A81C0
:101D50000F900F90CF91DF910895DF93CF9300D034
:101D600000D0CDB7DEB79C838B831A821982E4E260
:101D7000F0E08081282F30E0E5E2F0E08081882FDC
:101D800090E0982F8827820F931F9A8389838981F7
:101D90009A819370EB81FC819183808380E00F9026
:101DA0000F900F900F90CF91DF910895DF93CF9315
:101DB00000D000D000D0CDB7DEB78B837D836C839D
:101DC0001A8219828B81883018F081E08E832EC0B0
:101DD000A7E2B0E0E7E2F0E08081887F8C93A7E2A1
:101DE000B0E0E7E2F0E090818B81892B8C93A6E252
:101DF000B0E0E6E2F0E0808180648C93E4E2F0E021
:101E00008081282F30E0E5E2F0E08081882F90E0AB
:101E1000982F8827820F931F9A83898389819A81BB
:101E20009370EC81FD81918380831E828E81269642
:101E30000FB6F894DEBF0FBECDBFCF91DF910895EE
:101E4000DF93CF9300D000D000D0CDB7DEB78B8327
:101E50007D836C831A8219828B81883018F081E02F
:101E60008E832DC08B819E012F5F3F4FB9010E9451
:101E7000D60E89819A81CC01A0E0B0E0BC01CD01F1
:101E80000E940705DC01CB01BC01CD0120E030E060
:101E900040EA50E40E941F02DC01CB01BC01CD01ED
:101EA00020E030E040E854E40E941903DC01CB015B
:101EB000EC81FD8180839183A283B3831E828E8116
:101EC00026960FB6F894DEBF0FBECDBFCF91DF913F
:101ED0000895DF93CF93CDB7DEB76C970FB6F89424
:101EE000DEBF0FBECDBF80E090E0A0EAB1E4898FF5
:101EF0009A8FAB8FBC8F698D7A8D8B8D9C8D20E0F6
:101F000030E04AEF54E40E941F02DC01CB018D8BCC
:101F10009E8BAF8BB88F6D897E898F89988D20E0DD
:101F200030E040E85FE30E94250488232CF481E040
:101F300090E09C8B8B8B3FC06D897E898F89988DBB
:101F400020E03FEF4FE757E40E94C50318164CF519
:101F5000698D7A8D8B8D9C8D20E030E040E251E4DC
:101F60000E941F02DC01CB01BC01CD010E9449008F
:101F7000DC01CB019C8B8B8B0FC088EC90E09A8BA3
:101F8000898B89899A890197F1F79A8B898B8B893B
:101F90009C8901979C8B8B8B8B899C89009769F717
:101FA00014C06D897E898F89988D0E944900DC015B
:101FB000CB019C8B8B8B8B899C89988B8F878F8592
:101FC00098890197F1F7988B8F87A7E3B0E0E7E353
:101FD000F0E0808187608C93A8E3B0E0E8E3F0E074
:101FE0008081887F8C93E1E3F0E08FEF808380E055
:101FF00090E0A0E7B1E48B879C87AD87BE876B85B7
:102000007C858D859E8520E030E04AEF54E40E9477
:102010001F02DC01CB018F839887A987BA876F8164
:10202000788589859A8520E030E040E85FE30E946A
:10203000250488232CF481E090E09E838D833FC0AB
:102040006F81788589859A8520E03FEF4FE757E4D7
:102050000E94C50318164CF56B857C858D859E8581
:1020600020E030E040E251E40E941F02DC01CB019D
:10207000BC01CD010E944900DC01CB019E838D8310
:102080000FC088EC90E09C838B838B819C810197AF
:10209000F1F79C838B838D819E8101979E838D8335
:1020A0008D819E81009769F714C06F81788589853D
:1020B0009A850E944900DC01CB019E838D838D812E
:1020C0009E819A83898389819A810197F1F79A8306
:1020D00089830E94801088E30E946A1186E00E9432
:1020E0006A1180E80E946A118FE00E946A116C9662
:1020F0000FB6F894DEBF0FBECDBFCF91DF9108952C
:10210000DF93CF93CDB7DEB781E00E946A11CF9104
:10211000DF910895DF93CF9300D0CDB7DEB78983E9
:102120006A838981882341F48A81803178F48A81A5
:1021300080580E946A110AC08981813039F48A81ED
:10214000803120F48A8180540E946A110F900F9090
:10215000CF91DF910895DF93CF930F92CDB7DEB784
:10216000E1E3F0E08081E1E3F0E01082A8E3B0E099
:10217000E8E3F0E0808182608C93A8E3B0E0E8E3DC
:10218000F0E080818E7F8C930E94D510E1E3F0E037
:102190008FEF8083A8E3B0E0E8E3F0E080818D7FFB
:1021A0008C930F90CF91DF910895DF93CF93CDB7AC
:1021B000DEB72E970FB6F894DEBF0FBECDBFA8E3F3
:1021C000B0E0E8E3F0E080818B7F8C9300000000BA
:1021D00080E090E0A8E4B2E48B879C87AD87BE875F
:1021E0006B857C858D859E8520E030E04AEF54E448
:1021F0000E941F02DC01CB018F839887A987BA87D1
:102200006F81788589859A8520E030E040E85FE33A
:102210000E94250488232CF481E090E09E838D8326
:102220003FC06F81788589859A8520E03FEF4FE731
:1022300057E40E94C50318164CF56B857C858D8587
:102240009E8520E030E040E251E40E941F02DC0164
:10225000CB01BC01CD010E944900DC01CB019E8372
:102260008D830FC088EC90E09C838B838B819C8155
:102270000197F1F79C838B838D819E8101979E83CB
:102280008D838D819E81009769F714C06F81788559
:1022900089859A850E944900DC01CB019E838D834C
:1022A0008D819E819A83898389819A810197F1F733
:1022B0009A838983A8E3B0E0E8E3F0E0808184605A
:1022C0008C932E960FB6F894DEBF0FBECDBFCF9184
:1022D000DF910895DF93CF930F92CDB7DEB7898357
:1022E0000E94AB10E2E3F0E089818083A8E3B0E0D4
:1022F000E8E3F0E080818C7F8C930E94D5100F90F2
:10230000CF91DF910895DF93CF930F92CDB7DEB7D2
:1023100089830E94AB10A2E3B0E0E2E3F0E08081A9
:102320008F708C93A2E3B0E0E2E3F0E08081982F1D
:102330008981807F892B8C93A8E3B0E0E8E3F0E00B
:1023400080818C7F8C930E94D510A8E3B0E0E8E3F5
:10235000F0E080818F708C93A8E3B0E0E8E3F0E0D8
:102360008081282F8981882F90E082959295907F97
:102370009827807F9827822B8C930E94D5100F90EE
:10238000CF91DF910895DF93CF930F92CDB7DEB752
:1023900089830E94AB10A8E3B0E0E8E3F0E080811D
:1023A00081608C93E2E3F0E089818083A8E3B0E070
:1023B000E8E3F0E0808181608C93A8E3B0E0E8E39B
:1023C000F0E080818D7F8C930E94D5100F90CF918B
:1023D000DF910895DF93CF9300D000D0CDB7DEB763
:1023E0009C838B831A8219822CC089819A810196E1
:1023F0009A838983EB81FC8120818B819C8101966A
:102400009C838B83822F0E94C31189819A818031A2
:10241000910529F481E060E00E948A1012C0898150
:102420009A818032910529F089819A8181329105C2
:1024300041F40E94801080E060E00E948A101A82BD
:102440001982EB81FC818081882379F60F900F90AF
:102450000F900F90CF91DF910895DF93CF93CDB779
:10246000DEB729970FB6F894DEBF0FBECDBF9987B0
:10247000888700D000D000D0EDB7FEB73196CE01EE
:1024800001969183808380E690E0938382838885A0
:102490009985958384830E94D7138DB79EB706963E
:1024A0000FB6F8949EBF0FBE8DBFCE0101960E945D
:1024B000EA1129960FB6F894DEBF0FBECDBFCF91BB
:1024C000DF910895DF93CF93CDB7DEB7A8970FB60E
:1024D000F894DEBF0FBECDBF6F8F78A389A39AA3F8
:1024E0006F8D78A189A19AA120E030E040E050E012
:1024F0000E94250488232CF423E630E038A72FA37C
:1025000004C045E650E058A74FA38FA198A59E8729
:102510008D876F8D78A189A19AA120E030E040E0FD
:1025200050E00E942504882364F48F8D98A1A9A10E
:10253000BAA19C01AD0150582BA33CA34DA35EA3AF
:1025400008C08F8D98A1A9A1BAA18BA39CA3ADA30C
:10255000BEA32BA13CA14DA15EA129873A874B8741
:102560005C8769857A858B859C850E94B304DC0134
:10257000CB0198878F838F819885AA2797FDA09597
:10258000BA2FBC01CD010E9455049B01AC016985A5
:102590007A858B859C850E94C101DC01CB018B83F0
:1025A0009C83AD83BE836B817C818D819E8120E085
:1025B00030E44CE156E40E941F02DC01CB01BC0177
:1025C000CD010E94B304DC01CB019A8389834DB70E
:1025D0005EB74A5050400FB6F8945EBF0FBE4DBF75
:1025E000EDB7FEB73196CE010F969183808386E6D4
:1025F00090E0938382838D859E85958384838F81EC
:1026000098859783868389819A81918780870E94A4
:10261000D7138DB79EB70A960FB6F8949EBF0FBE1C
:102620008DBFCE010F960E94EA11A8960FB6F894BE
:10263000DEBF0FBECDBFCF91DF910895DF93CF9363
:10264000CDB7DEB78EE991E00E94AD0E80919E017C
:1026500090919F01CC01A0E0B0E0BC01CD010E94AF
:102660000705DC01CB01BC01CD0120EB32E74CE9D1
:1026700050E40E941F02DC01CB0180939A019093E9
:102680009B01A0939C01B0939D0180919A01909130
:102690009B01A0919C01B0919D01BC01CD0120E066
:1026A00030E040E251E40E941903DC01CB01809349
:1026B0009A0190939B01A0939C01B0939D01CF91AF
:1026C000DF910895DF93CF93CDB7DEB70E94AB07BC
:1026D0000E94690F0E94E90D8EE193E10E94450E70
:1026E00080E00E94130EAFE5B0E0EFE5F0E08081FE
:1026F00080688C9381E00E94840E80E790E00E94C5
:10270000EA1188E790E00E94EA1180919A01909185
:102710009B01A0919C01B0919D01BC01CD010E9443
:10272000B304DC01CB010E942D1280E991E00E94EC
:10273000EA118AE790E00E94EA110E948010DACF45
:102740002F923F924F925F926F927F928F929F92C1
:10275000AF92BF92CF92DF92EF92FF920F931F93AF
:10276000CF93DF93CDB7DEB7CA1BDB0B0FB6F89460
:10277000DEBF0FBECDBF09942A88398848885F84A0
:102780006E847D848C849B84AA84B984C884DF8011
:10279000EE80FD800C811B81AA81B981CE0FD11DF5
:1027A0000FB6F894DEBF0FBECDBFED010895AEE0C9
:1027B000B0E0EDEDF3E10C94AE130D891E8986E0D7
:1027C0008C831A8309838FEF9FE79E838D839E01FD
:1027D000275E3F4FCE0101966F89788DA9010E9437
:1027E000FB132F813885020F131FF80110822E96DC
:1027F000E4E00C94CA13ABE0B0E0E1E0F4E10C9447
:10280000A0133C012B015A01FC011782168283811F
:1028100081FD03C06FEF7FEFC6C19AE0892E1E01D4
:102820000894211C311CF3012381F20123FD8591C1
:1028300023FF81912F01882309F4B2C1853239F435
:1028400023FD859123FF81912F01853229F490E0AA
:10285000B3010E94EE15E7CF982FFF24EE249924B0
:10286000FFE1FF15D0F09B3269F09C3228F49032E2
:1028700059F0933291F40EC09D3249F0903369F4CF
:1028800041E024C052E0F52A84E0F82A28C098E00C
:10289000F92A25C0E0E1FE2A22C0F7FC29C0892FD1
:1028A00080538A3070F4F6FE05C0989C902C112459
:1028B000980E15C0E89CE02C1124E80EF0E2FF2AE7
:1028C0000EC09E3229F4F6FC6BC140E4F42A07C026
:1028D0009C3619F450E8F52A02C0983649F4F20102
:1028E00023FD959123FF91912F01992309F0B8CFF2
:1028F000892F8554833018F08052833038F444E0B7
:1029000050E0A40EB51E5FE359830FC0933631F03B
:10291000933779F0933509F056C020C0F5018081D6
:10292000898342E050E0A40EB51E610101E010E091
:1029300012C0F501C080D180F6FC03C06FEF7FEFBD
:1029400002C0692D70E042E050E0A40EB51EC60141
:102950000E94E3158C015FE7F52214C0F501C080E9
:10296000D180F6FC03C06FEF7FEF02C0692D70E0ED
:1029700042E050E0A40EB51EC6010E94D8158C019D
:1029800050E8F52AF3FE07C01AC080E290E0B301D8
:102990000E94EE15EA948E2D90E008171907A8F30F
:1029A0000EC0F601F7FC8591F7FE81916F0190E072
:1029B000B3010E94EE15E110EA9401501040011598
:1029C000110579F7EAC0943611F0993669F5F7FEEA
:1029D00008C0F501208131814281538184E090E07B
:1029E0000AC0F501808191819C01442737FD409503
:1029F000542F82E090E0A80EB91E9FE6F92257FFFF
:102A000009C050954095309521953F4F4F4F5F4FEE
:102A1000E0E8FE2ACA01B901A1012AE030E00E94E3
:102A20001A16D82ED21840C0953729F41F2D1F7EB4
:102A30002AE030E01DC01F2D197F9F3661F09037CE
:102A400020F4983509F0ACC00FC0903739F09837B2
:102A500009F0A6C004C028E030E00AC0106114FDEF
:102A6000146020E130E004C014FD166020E132E083
:102A700017FF08C0F501608171818281938144E074
:102A800050E008C0F50180819181BC0180E090E0B8
:102A900042E050E0A40EB51EA1010E941A16D82EE5
:102AA000D2188FE7F82EF122F6FE0BC05EEFF5226A
:102AB000D91438F4F4FE07C0F2FC05C08FEEF822FA
:102AC00002C01D2D01C0192DF4FE0DC0FE01ED0D3B
:102AD000F11D8081803319F499EEF92208C01F5F3F
:102AE000F2FE05C003C08F2D867809F01F5F0F2D01
:102AF000F3FC14C0F0FE0FC01E1510F09D2C0BC08F
:102B00009D2C9E0C911A1E2D06C080E290E0B30110
:102B10000E94EE151F5F1E15C0F304C01E1510F4B1
:102B2000E11A01C0EE2404FF0FC080E390E0B3017E
:102B30000E94EE1502FF1DC001FD03C088E790E072
:102B40000EC088E590E00BC0802F867891F001FFE1
:102B500002C08BE201C080E2F7FC8DE290E0B3019D
:102B60000E94EE1506C080E390E0B3010E94EE15CE
:102B70009A94D914C0F3DA94F101ED0DF11D80811E
:102B800090E0B3010E94EE15DD20A9F706C080E2B7
:102B900090E0B3010E94EE15EA94EE20C1F743CE17
:102BA000F30166817781CB012B96E2E10C94BC1393
:102BB000FC010590615070400110D8F78095909508
:102BC0008E0F9F1F0895FC0161507040019001100D
:102BD000D8F7809590958E0F9F1F08950F931F93A0
:102BE000CF93DF938C01EB018B8181FF1BC082FFB0
:102BF0000DC02E813F818C819D812817390764F497
:102C0000E881F9810193F983E88306C0E885F985B5
:102C1000802F0995892B31F48E819F8101969F83A6
:102C20008E8302C00FEF1FEFC801DF91CF911F917C
:102C30000F910895FA01AA27283051F1203181F12E
:102C4000E8946F936E7F6E5F7F4F8F4F9F4FAF4FB4
:102C5000B1E03ED0B4E03CD0670F781F891F9A1FC7
:102C6000A11D680F791F8A1F911DA11D6A0F711D7B
:102C7000811D911DA11D20D009F468943F912AE087
:102C8000269F11243019305D3193DEF6CF0108956F
:102C9000462F4770405D4193B3E00FD0C9F7F6CFA0
:102CA000462F4F70405D4A3318F0495D31FD405268
:102CB000419302D0A9F7EACFB4E0A69597958795FE
:102CC00077956795BA95C9F70097610571050895DD
:102CD0009B01AC010A2E0694579547953795279589
:102CE000BA95C9F7620F731F841F951FA01D089521
:042CF000F894FFCF86
:102CF4002564002D0000257325642E2530346400DE
:102D040054656D70206973002000430000000000CA
:102D1400000000000001020203030303040404048E
:102D24000404040405050505050505050505050553
:102D34000505050506060606060606060606060633
:102D4400060606060606060606060606060606061F
:102D54000606060607070707070707070707070703
:102D640007070707070707070707070707070707EF
:102D740007070707070707070707070707070707DF
:102D840007070707070707070707070707070707CF
:102D940007070707080808080808080808080808B3
:102DA400080808080808080808080808080808089F
:102DB400080808080808080808080808080808088F
:102DC400080808080808080808080808080808087F
:102DD400080808080808080808080808080808086F
:102DE400080808080808080808080808080808085F
:102DF400080808080808080808080808080808084F
:102E0400080808080808080808080808080808083E
:102E14000808080854656D70657261747572650000
:022E2400DF00CD
:00000001FF
