:100000000C942A000C94DF080C9406090C94470009
:100010000C9447000C9447000C9447000C94470044
:100020000C9447000C9447000C9447000C94470034
:100030000C9447000C9447000C9447000C94470024
:100040000C94C5090C9447000C942D090C9447009E
:100050000C94470011241FBECFE5D8E0DEBFCDBF12
:1000600011E0A0E6B0E0ECEDFDE102C005900D92DC
:10007000A039B107D9F711E0A0E9B1E001C01D92A4
:10008000AE39B107E1F70E94C00B0C94EC0E0C9452
:100090000000A0E0B0E0EFE4F0E00C94140CDC0110
:1000A0002B01FA019C91923008F439C1EB0188814F
:1000B000823008F433C1943069F4843009F02FC1E0
:1000C00011969C9111978981981709F428C1AAE784
:1000D000B0E025C1843009F421C18230A9F4923006
:1000E00009F01DC19A01AD0188E0EA010990AE0155
:1000F000E90109929E018150C1F7E20189811196BF
:100100009C918923818308C1923009F407C112961A
:100110002D903C901397EB018A819B811496AD90B2
:10012000BD90CD90DC901797EC80FD800E811F81F3
:100130009101281B390BB90137FF04C066277727C7
:10014000621B730B603271050CF061C0121613064E
:100150006CF537014801062E04C096948794779475
:1001600067940A94D2F721E030E040E050E004C008
:10017000220F331F441F551F6A95D2F7215030407C
:10018000404050402E213F2140235123211531056D
:100190004105510521F021E030E040E050E07901D7
:1001A0008A01E628F728082919293CC0232BD1F118
:1001B000260E371E35014601062E04C096948794FC
:1001C000779467940A94D2F721E030E040E050E061
:1001D00004C0220F331F441F551F6A95D2F72150C8
:1001E0003040404050402A213B214C215D212115C7
:1001F00031054105510521F021E030E040E050E0BB
:1002000059016A01A628B728C828D9280BC0821529
:1002100093052CF01C01AA24BB24650103C0EE2425
:10022000FF24870111969C91D20111968C91981709
:1002300009F445C0992339F0A80197012A193B090F
:100240004C095D0906C0A60195012E193F09400B16
:10025000510B57FD08C011823382228224833583DB
:10026000468357831DC081E08183338222828827A1
:100270009927DC01821B930BA40BB50B8483958318
:10028000A683B7830DC0220F331F441F551F24833D
:100290003583468357838281938101979383828339
:1002A0002481358146815781DA01C9010197A1096D
:1002B000B1098F5F9F4FAF4FBF4328F30BC09183AE
:1002C00033822282EA0CFB1C0C1D1D1DE482F58288
:1002D0000683178383E0808324813581468157819B
:1002E00057FF1AC0C901AA2797FDA095BA2F8170A0
:1002F0009070A070B0705695479537952795822BD2
:10030000932BA42BB52B84839583A683B7838281FB
:100310009381019693838283DF0101C0D201CD01D5
:10032000CDB7DEB7E2E10C94300CA0E2B0E0EBE92F
:10033000F1E00C94200C69837A838B839C832D835A
:100340003E834F835887E9E0EE2EF12CEC0EFD1E24
:10035000CE010196B7010E9418068E010F5E1F4F55
:10036000CE010596B8010E9418068A8991E0892776
:100370008A8BC701B801AE01475E5F4F0E944900FA
:100380000E944305A096E6E00C943C0CA0E2B0E08D
:10039000ECECF1E00C94200C69837A838B839C83D2
:1003A0002D833E834F835887F9E0EF2EF12CEC0E1E
:1003B000FD1ECE010196B7010E9418068E010F5E48
:1003C0001F4FCE010596B8010E941806C701B8015B
:1003D000AE01475E5F4F0E9449000E944305A09610
:1003E000E6E00C943C0CA0E2B0E0E9EFF1E00C9404
:1003F000140C69837A838B839C832D833E834F8384
:100400005887CE010196BE01675F7F4F0E94180694
:10041000CE010596BE016F5E7F4F0E94180699853A
:10042000923088F089898230C8F0943019F4823093
:1004300051F404C0843029F4923081F48AE790E0CA
:10044000C6C0923049F420E09A858A89981321E049
:100450002A87CE010996BBC0823049F420E09A85F4
:100460008A89981321E02A8BCE014196B0C02D8451
:100470003E844F8458886D887E888F88988CEE24BF
:10048000FF248701AA24BB24650140E050E060E01E
:1004900070E0E0E0F0E0C10181709070892BE9F03C
:1004A000E60CF71C081D191D9A01AB012A0D3B1D16
:1004B0004C1D5D1D80E090E0A0E0B0E0E614F70484
:1004C0000805190520F481E090E0A0E0B0E0BA0151
:1004D000A901480F591F6A1F7B1FAA0CBB1CCC1C0B
:1004E000DD1C97FE08C081E090E0A0E0B0E0A82A03
:1004F000B92ACA2ADB2A3196E032F10549F0660CA6
:10050000771C881C991C5694479437942794C3CF22
:10051000FA85EA892B893C898B859C85280F391FB0
:100520002E5F3F4F17C0CA0181709070892B61F018
:1005300016950795F794E79480E090E0A0E0B0E886
:10054000E82AF92A0A2B1B2B76956795579547952C
:100550002F5F3F4F77FDE7CF0CC0440F551F661F3D
:10056000771F17FD4160EE0CFF1C001F111F21506B
:100570003040403090E0590790E0690790E47907F7
:1005800060F32B8F3C8FDB01CA018F779070A070D6
:10059000B07080349105A105B10561F447FD0AC032
:1005A000E114F1040105110529F0405C5F4F6F4F24
:1005B0007F4F40781A8EFE1711F081E08A8F4D8FA1
:1005C0005E8F6F8F78A383E0898FCE0149960E945A
:1005D0004305A096E2E10C94300CA8E1B0E0E3EF13
:1005E000F2E00C941C0C69837A838B839C832D83AB
:1005F0003E834F835887B9E0EB2EF12CEC0EFD1EA5
:10060000CE010196B7010E9418068E010F5E1F4FA2
:10061000CE010596B8010E9418062985223008F4FB
:100620007EC03989323010F4B8017CC08A859A893D
:1006300089278A87243011F0223031F4231709F0FA
:100640006EC06AE770E06EC0343039F41D861E86D5
:100650001F86188A1C861B8604C0323021F484E071
:100660008987B7015FC02B853C858B899C89281BB6
:10067000390B3C872B87ED84FE840F851889AD8864
:10068000BE88CF88D88CEA14FB040C051D0540F405
:10069000EE0CFF1C001F111F215030403C872B87A0
:1006A00020E030E040E050E080E090E0A0E0B0E406
:1006B00060E070E0EA14FB040C051D0540F0282BF7
:1006C000392B4A2B5B2BEA18FB080C091D09B69540
:1006D000A79597958795EE0CFF1C001F111F6F5F64
:1006E0007F4F6F31710531F7DA01C9018F77907053
:1006F000A070B07080349105A105B10561F427FDAB
:100700000AC0E114F1040105110529F0205C3F4FF6
:100710004F4F5F4F20782D873E874F87588BBE0104
:10072000675F7F4FCB010E9443056896EAE00C9417
:10073000380CA8E1B0E0EFE9F3E00C94200C6983F9
:100740007A838B839C832D833E834F83588789E0F4
:10075000E82EF12CEC0EFD1ECE010196B7010E9491
:1007600018068E010F5E1F4FCE010596B8010E943C
:1007700018068985823040F08989823028F0C701C7
:10078000B8010E94900601C081E06896E6E00C94F2
:100790003C0CA8E0B0E0EFECF3E00C941D0C9B01E6
:1007A000AC0183E08983DA01C9018827B7FD83950D
:1007B0009927AA27BB27B82E2115310541055105D8
:1007C00019F482E089833AC08823A9F0203080E0C0
:1007D000380780E0480780E8580729F460E070E0B7
:1007E00080E09FEC30C0EE24FF248701E21AF30A78
:1007F000040B150B02C079018A018EE1C82ED12CA1
:10080000DC82CB82ED82FE820F831887C801B7019C
:100810000E94F40401971816190684F4082E04C0E7
:10082000EE0CFF1C001F111F0A94D2F7ED82FE820E
:100830000F831887C81AD90ADC82CB82BA82CE010C
:1008400001960E9443052896E9E00C94390CACE02F
:10085000B0E0EDE2F4E00C94240C69837A838B839E
:100860009C83CE010196BE016B5F7F4F0E941806EC
:100870008D81823061F1823050F1843021F48E819B
:10088000882351F12EC02F81388537FD20C06E811D
:100890002F3131051CF06623F9F023C08EE190E082
:1008A000821B930B29853A854B855C8504C0569540
:1008B0004795379527958A95D2F76623B1F05095DD
:1008C0004095309521953F4F4F4F5F4F0EC020E030
:1008D00030E040E050E009C02FEF3FEF4FEF5FE71F
:1008E00004C020E030E040E050E8B901CA012C9695
:1008F000E2E00C94400CA8E0B0E0E1E8F4E00C94F5
:100900001C0C7B018C01611571058105910519F4A1
:1009100082E0898360C083E089838EE1C82ED12C78
:10092000DC82CB82ED82FE820F831887C801B7017B
:100930000E94F404FC013197F7FF3BC022273327C4
:100940002E1B3F0B57016801022E04C0D694C7949A
:10095000B794A7940A94D2F740E050E060E070E0CA
:1009600081E090E0A0E0B0E004C0880F991FAA1FCA
:10097000BB1F2A95D2F70197A109B1098E219F21AA
:10098000A023B1230097A105B10521F041E050E07B
:1009900060E070E04A295B296C297D294D835E83E4
:1009A0006F8378878EE190E08E1B9F0B9C838B83F7
:1009B00012C0309781F00E2E04C0EE0CFF1C001FF9
:1009C000111F0A94D2F7ED82FE820F831887CE1A88
:1009D000DF0ADC82CB821A82CE0101960E94430597
:1009E0002896EAE00C94380CEF92FF920F931F9335
:1009F0007B018C0180E0E81680E0F80681E00807C2
:100A000080E0180788F48FEFE816F104010511055E
:100A100031F028F088E090E0A0E0B0E017C080E07E
:100A200090E0A0E0B0E012C080E0E81680E0F806B8
:100A300080E0080781E0180728F088E190E0A0E056
:100A4000B0E004C080E190E0A0E0B0E020E230E05F
:100A500040E050E0281B390B4A0B5B0B04C0169595
:100A60000795F794E7948A95D2F7F701EE57FF4F71
:100A70008081281B310941095109C9011F910F913A
:100A8000FF90EF900895DF92EF92FF920F931F93E4
:100A9000FC01E480F58006811781D180808182305D
:100AA00048F480E090E0A0E1B0E0E82AF92A0A2BBF
:100AB0001B2BA5C0843009F49FC0823021F4EE24A2
:100AC000FF24870105C0E114F1040105110519F4A3
:100AD000E0E0F0E096C0628173819FEF62387907B1
:100AE0000CF05BC022E83FEF261B370B2A313105A3
:100AF0002CF020E030E040E050E02AC0B801A7012F
:100B0000022E04C076956795579547950A94D2F7BB
:100B100081E090E0A0E0B0E004C0880F991FAA1F18
:100B2000BB1F2A95D2F70197A109B1098E219F21F8
:100B3000A023B1230097A105B10521F081E090E049
:100B4000A0E0B0E09A01AB01282B392B4A2B5B2B9C
:100B5000DA01C9018F779070A070B0708034910570
:100B6000A105B10539F427FF09C0205C3F4F4F4F65
:100B70005F4F04C0215C3F4F4F4F5F4FE0E0F0E01C
:100B80002030A0E03A07A0E04A07A0E45A0710F09E
:100B9000E1E0F0E079018A0127C06038710564F571
:100BA000FB01E158FF4FD801C7018F779070A0700B
:100BB000B07080349105A105B10539F4E7FE0DC090
:100BC00080E490E0A0E0B0E004C08FE390E0A0E01B
:100BD000B0E0E80EF91E0A1F1B1F17FF05C016958F
:100BE0000795F794E794319687E016950795F79463
:100BF000E7948A95D1F705C0EE24FF248701EFEF33
:100C0000F0E06E2F679566276795902F9F77D794B2
:100C1000DD24D7948E2F8695492F462B582F5D299A
:100C2000B701CA011F910F91FF90EF90DF900895D7
:100C3000FC01DB01408151812281622F6F7770E0DE
:100C4000221F2227221F9381892F880F822B282F72
:100C500030E0991F9927991F11969C9311972115A0
:100C60003105A9F5411551056105710511F482E0C1
:100C700037C082E89FEF13969C938E9312979A0148
:100C8000AB0167E0220F331F441F551F6A95D1F750
:100C900083E08C930DC0220F331F441F551F129603
:100CA0008D919C911397019713969C938E93129715
:100CB000203080E0380780E0480780E4580758F388
:100CC00014962D933D934D935C93179708952F3F62
:100CD000310579F4411551056105710519F484E078
:100CE0008C93089564FF03C081E08C9312C01C9222
:100CF00010C02F57304013963C932E93129783E0E9
:100D00008C9387E0440F551F661F771F8A95D1F794
:100D1000706414964D935D936D937C93179708952B
:100D20001F93DC01FB019C91923008F447C0808145
:100D3000823008F443C0943051F411961C918430F1
:100D400099F58181682F70E0611B71093FC0843083
:100D500021F0923031F48230B9F18181882389F118
:100D60002DC011961C9111978230F1F081811817D6
:100D7000D9F412962D913C91139782819381821719
:100D8000930794F028173907BCF014968D919D9124
:100D90000D90BC91A02D2481358146815781281763
:100DA00039074A075B0718F4112341F00AC082177C
:100DB0009307A407B50740F4112319F061E070E030
:100DC00005C06FEF7FEF02C060E070E0CB011F91C4
:100DD000089508951ABA17BA14BA11BA1BBA18BAF4
:100DE00015BA12BA80B78B7F80BF0895683008F0BB
:100DF0007EC0813031F1813038F0823009F43EC05C
:100E0000833009F074C056C0442321F0413009F00A
:100E10006EC00CC02AB381E090E002C0880F991F19
:100E20006A95E2F7809582238ABB5FC02AB381E08E
:100E300090E002C0880F991F6A95E2F7282B2ABB21
:100E400054C0442321F0413009F051C00CC027B3F5
:100E500081E090E002C0880F991F6A95E2F78095C3
:100E6000822387BB42C027B381E090E002C0880F95
:100E7000991F6A95E2F7282B27BB37C0442319F046
:100E80004130A9F50CC024B381E090E002C0880F86
:100E9000991F6A95E2F78095822384BB26C024B30C
:100EA00081E090E002C0880F991F6A95E2F7282B35
:100EB00024BB1BC0442319F04130C9F40CC021B33A
:100EC00081E090E002C0880F991F6A95E2F7809553
:100ED000822381BB0AC021B381E090E002C0880F69
:100EE000991F6A95E2F7282B21BB80E0089581E0E5
:100EF0000895683008F07AC0813029F1813038F0E7
:100F0000823009F43CC0833009F06EC053C04423E2
:100F100071F0413009F06AC02BB381E090E002C06B
:100F2000880F991F6A95E2F7282B2BBB5DC02BB366
:100F300081E090E002C0880F991F6A95E2F78095E2
:100F400082238BBB51C0442371F0413009F04EC065
:100F500028B381E090E002C0880F991F6A95E2F7FC
:100F6000282B28BB41C028B381E090E002C0880F45
:100F7000991F6A95E2F78095822388BB35C0442388
:100F800069F0413099F525B381E090E002C0880F07
:100F9000991F6A95E2F7282B25BB26C025B381E06F
:100FA00090E002C0880F991F6A95E2F7809582232E
:100FB00085BB1AC0442369F04130C1F422B381E0FB
:100FC00090E002C0880F991F6A95E2F7282B22BB98
:100FD0000BC022B381E090E002C0880F991F6A9590
:100FE000E2F78095822382BB80E0089581E0089536
:100FF0006830B0F5813091F0813028F08230C9F04E
:10100000833071F521C02BB381E090E002C0880FDE
:10101000991F6A95E2F728272BBB20C028B381E0EF
:1010200090E002C0880F991F6A95E2F7282728BB35
:1010300015C025B381E090E002C0880F991F6A9522
:10104000E2F7282725BB0AC022B381E090E002C066
:10105000880F991F6A95E2F7282722BB80E0089540
:1010600081E00895FA01683010F081E00895813040
:1010700049F0813028F0823039F0833071F40FC0AC
:1010800089B303C086B301C083B390E002C09595D5
:1010900087956A95E2F78170808380E0089580B338
:1010A00090E002C0959587956A95E2F781708083FC
:1010B00080E00895683008F07EC0813031F18130E1
:1010C00038F0823009F43EC0833009F074C056C055
:1010D000442321F0413009F070C00CC02BB381E0F3
:1010E00090E002C0880F991F6A95E2F780958223ED
:1010F0008BBB5FC02BB381E090E002C0880F991FCB
:101100006A95E2F7282B2BBB54C0442321F04130D1
:1011100009F053C00CC028B381E090E002C0880FF2
:10112000991F6A95E2F78095822388BB42C028B355
:1011300081E090E002C0880F991F6A95E2F7282BA2
:1011400028BB37C0442319F04130B9F50CC025B392
:1011500081E090E002C0880F991F6A95E2F78095C0
:10116000822385BB26C025B381E090E002C0880FB2
:10117000991F6A95E2F7282B25BB1BC0442319F061
:101180004130D9F40CC022B381E090E002C0880F56
:10119000991F6A95E2F78095822382BB0AC022B329
:1011A00081E090E002C0880F991F6A95E2F7282B32
:1011B00022BB80E0089581E0089580E008951F92A9
:1011C0000F920FB60F9211242F933F934F935F937B
:1011D0006F937F938F939F93AF93BF93EF93FF93FF
:1011E000E0919001F09191010995FF91EF91BF91EC
:1011F000AF919F918F917F916F915F914F913F91AF
:101200002F910F900FBE0F901F9018951F920F9265
:101210000FB60F9211242F933F934F935F936F93C9
:101220007F938F939F93AF93BF93EF93FF93E0913F
:101230009201F09193010995FF91EF91BF91AF91C8
:101240009F918F917F916F915F914F913F912F91DE
:101250000F900FBE0F901F9018951F920F920FB610
:101260000F9211242F933F934F935F936F937F932C
:101270008F939F93AF93BF93EF93FF93E09194016C
:10128000F09195010995FF91EF91BF91AF919F91D9
:101290008F917F916F915F914F913F912F910F901F
:1012A0000FBE0F901F901895982F8BB780648BBF3F
:1012B000992321F0913051F081E0089585B7826043
:1012C00085BF85B7816085BF80E0089585B782605E
:1012D00085BF85B78E7F85BF80E00895909391018B
:1012E0008093900180E00895982F8BB780688BBF22
:1012F000992321F0913051F081E0089585B78860FD
:1013000085BF85B7846085BF80E0089585B7886014
:1013100085BF85B78B7F85BF80E00895909393014B
:101320008093920180E00895982F8BB780628BBFE5
:10133000992321F0913039F081E0089584B78064D9
:1013400084BF80E0089584B78F7B84BF80E00895D8
:10135000909395018093940180E008953F983E9A80
:10136000379A309A329A0895882321F0813029F0F3
:1013700081E00895339A80E00895339880E00895DD
:10138000909397018093960108951F920F920FB644
:101390000F9211242F933F934F935F936F937F93FB
:1013A0008F939F93AF93BF93EF93FF93E091960139
:1013B000F09197010995FF91EF91BF91AF919F91A6
:1013C0008F917F916F915F914F913F912F910F90EE
:1013D0000FBE0F901F901895982F883010F081E065
:1013E000089587B1887F87B987B1892B87B9369AE5
:1013F00080E00895FC0134B125B1922F80E0830F85
:10140000911D93709183808380E00895982FFB0154
:10141000883010F081E0089587B1887F87B987B15F
:10142000892B87B9369A3699FECF34B125B1922FE0
:1014300080E0830F911D93709183808380E00895F5
:101440000F931F93DF93CF9300D0CDB7DEB78B01FF
:10145000883010F081E01FC01A821982BE016F5FD0
:101460007F4F0E94060A69817A8180E090E00E94A5
:101470007B0420E030E040EA50E40E94F30120E0E9
:1014800030E040E85AE30E94F301F8016083718381
:101490008283938380E00F900F90CF91DF911F9113
:1014A0000F910895C2980000000084EF91E028ECAD
:1014B00030E0F9013197F1F70197D9F7C29A089511
:1014C00081B311BAC19AC0980E94520A8FEF81BBB2
:1014D000C19808951F93182F0E94600A12BB88B309
:1014E0008C7F88BB0E94520A1F910895882339F48B
:1014F000603168F4862F80580E946A0A089581300E
:1015000031F4603120F4862F80540E946A0A0895D5
:1015100081E00E946A0A089580E49CE90197F1F74E
:1015200087B3876087BB88B3887F88BB8FEF81BB19
:1015300080E395E70197F1F70E94880A88E30E940B
:101540006A0A86E00E946A0A80E80E946A0A8FE0BE
:101550000E946A0A08951F93182F0E94600A82B39E
:101560008F7082BB92B3812F807F892B82BB88B31F
:101570008C7F88BB0E94520A88B38F7088BB88B367
:101580001295107F812B88BB0E94520A1F910895EB
:101590001F93182F0E94600AC09A12BBC09AC1986C
:1015A0000E94520A1F9108950F931F93CF93DF93C8
:1015B0008C01C0E0D0E019C021960E94C80AC03159
:1015C000D10529F481E060E00E94760A0CC0CE01CA
:1015D0008097029740F40E94880A80E060E00E94B1
:1015E000760AC0E0D0E00F5F1F4FF80180818823AA
:1015F00019F7DF91CF911F910F9108958F929F92CC
:10160000AF92BF92CF92DF92EF92FF920F931F9310
:10161000DF93CF93CDB7DEB760970FB6F894DEBFF8
:101620000FBECDBF7B018C0120E030E040E050E0F8
:101630000E94990388235CF490E6892E90E0992E0D
:1016400057016801D7FAD094D7F8D09406C0570153
:10165000680182E6882E80E0982EC601B5010E94BE
:1016600027042DB73EB72A5030400FB6F8943EBF3E
:101670000FBE2DBF0DB71EB70F5F1F4F7E01089421
:10168000E11CF11CEDB7FEB7F282E18223E630E007
:10169000F801338322839582848277836683882747
:1016A00077FD8095982F0E94C9039B01AC01C6016C
:1016B000B5010E94950120E030E44CE156E40E941F
:1016C000F3010E942704F801718760870E944B0C88
:1016D0002DB73EB7265F3F4F0FB6F8943EBF0FBE03
:1016E0002DBFC7010E94D40A60960FB6F894DEBFE2
:1016F0000FBECDBFCF91DF911F910F91FF90EF9063
:10170000DF90CF90BF90AF909F908F9008950F93F0
:101710001F93DF93CF93CDB7DEB727970FB6F8941B
:10172000DEBF0FBECDBF00D000D000D0EDB7FEB7FA
:1017300031968E010F5F1F4FADB7BEB712961C9347
:101740000E9311972DE630E03383228395838483B3
:101750000E944B0C8DB79EB706960FB6F8949EBFAD
:101760000FBE8DBFC8010E94D40A27960FB6F89409
:10177000DEBF0FBECDBFCF91DF911F910F910895B6
:101780000E94EA060E948C0A0E94AE0980E00E9434
:10179000B4098FB780688FBF80E790E00E94D40AB9
:1017A00081E00E94EC0983EF9BE00E94C00980EC7D
:1017B0000E946A0A60919A0170919B0180919C013C
:1017C00090919D010E942704DC01CB010E94870BB0
:1017D0008EE891E00E94D40A88E790E00E94D40A43
:1017E0000E94880AD9CF88E991E00E94FA096091A5
:1017F00098017091990180E090E00E947B0420EBB9
:1018000032E74CE950E40E94F30120E030E040E28E
:1018100051E40E94ED0260939A0170939B018093C2
:101820009C0190939D0108952F923F924F925F9259
:101830006F927F928F929F92AF92BF92CF92DF92E0
:10184000EF92FF920F931F93CF93DF93CDB7DEB745
:10185000CA1BDB0B0FB6F894DEBF0FBECDBF0994D9
:101860002A88398848885F846E847D848C849B8430
:10187000AA84B984C884DF80EE80FD800C811B813E
:10188000AA81B981CE0FD11D0FB6F894DEBF0FBE6D
:10189000CDBFED010895AEE0B0E0E1E5FCE00C94D1
:1018A000220C0D891E8986E08C831A8309838FEFB1
:1018B0009FE79E838D839E01275E3F4FCE01019659
:1018C0006F89788DA9010E946F0C2F813885020FD6
:1018D000131FF80110822E96E4E00C943E0CABE04E
:1018E000B0E0E5E7FCE00C94140C3C012B015A013C
:1018F000FC0117821682838181FD03C06FEF7FEFA9
:10190000C6C19AE0892E1E010894211C311CF301E6
:101910002381F20123FD859123FF81912F018823EB
:1019200009F4B2C1853239F423FD859123FF8191F9
:101930002F01853229F490E0B3010E94620EE7CFB7
:10194000982FFF24EE249924FFE1FF15D0F09B325D
:1019500069F09C3228F4903259F0933291F40EC021
:101960009D3249F0903369F441E024C052E0F52AF9
:1019700084E0F82A28C098E0F92A25C0E0E1FE2A90
:1019800022C0F7FC29C0892F80538A3070F4F6FEFC
:1019900005C0989C902C1124980E15C0E89CE02C52
:1019A0001124E80EF0E2FF2A0EC09E3229F4F6FC64
:1019B0006BC140E4F42A07C09C3619F450E8F52ABC
:1019C00002C0983649F4F20123FD959123FF9191CD
:1019D0002F01992309F0B8CF892F8554833018F04F
:1019E0008052833038F444E050E0A40EB51E5FE32B
:1019F00059830FC0933631F0933779F0933509F05E
:101A000056C020C0F5018081898342E050E0A40ED9
:101A1000B51E610101E010E012C0F501C080D18067
:101A2000F6FC03C06FEF7FEF02C0692D70E042E06B
:101A300050E0A40EB51EC6010E94570E8C015FE750
:101A4000F52214C0F501C080D180F6FC03C06FEF11
:101A50007FEF02C0692D70E042E050E0A40EB51E99
:101A6000C6010E944C0E8C0150E8F52AF3FE07C017
:101A70001AC080E290E0B3010E94620EEA948E2DBB
:101A800090E008171907A8F30EC0F601F7FC85913E
:101A9000F7FE81916F0190E0B3010E94620EE110A8
:101AA000EA94015010400115110579F7EAC0943607
:101AB00011F0993669F5F7FE08C0F50120813181F2
:101AC0004281538184E090E00AC0F50180819181D8
:101AD0009C01442737FD4095542F82E090E0A80EEA
:101AE000B91E9FE6F92257FF09C0509540953095E1
:101AF00021953F4F4F4F5F4FE0E8FE2ACA01B901E1
:101B0000A1012AE030E00E948E0ED82ED21840C0EB
:101B1000953729F41F2D1F7E2AE030E01DC01F2DB0
:101B2000197F9F3661F0903720F4983509F0ACC0EA
:101B30000FC0903739F0983709F0A6C004C028E0EC
:101B400030E00AC0106114FD146020E130E004C0F0
:101B500014FD166020E132E017FF08C0F501608136
:101B600071818281938144E050E008C0F501808159
:101B70009181BC0180E090E042E050E0A40EB51EEF
:101B8000A1010E948E0ED82ED2188FE7F82EF122D6
:101B9000F6FE0BC05EEFF522D91438F4F4FE07C050
:101BA000F2FC05C08FEEF82202C01D2D01C0192DD8
:101BB000F4FE0DC0FE01ED0DF11D8081803319F49E
:101BC00099EEF92208C01F5FF2FE05C003C08F2DF9
:101BD000867809F01F5F0F2DF3FC14C0F0FE0FC0D4
:101BE0001E1510F09D2C0BC09D2C9E0C911A1E2DC5
:101BF00006C080E290E0B3010E94620E1F5F1E15D6
:101C0000C0F304C01E1510F4E11A01C0EE2404FF55
:101C10000FC080E390E0B3010E94620E02FF1DC07E
:101C200001FD03C088E790E00EC088E590E00BC09E
:101C3000802F867891F001FF02C08BE201C080E224
:101C4000F7FC8DE290E0B3010E94620E06C080E3D3
:101C500090E0B3010E94620E9A94D914C0F3DA9412
:101C6000F101ED0DF11D808190E0B3010E94620E43
:101C7000DD20A9F706C080E290E0B3010E94620E69
:101C8000EA94EE20C1F743CEF30166817781CB0160
:101C90002B96E2E10C94300CFC01059061507040F1
:101CA0000110D8F7809590958E0F9F1F0895FC0125
:101CB0006150704001900110D8F7809590958E0F7B
:101CC0009F1F08950F931F93CF93DF938C01EB0118
:101CD0008B8181FF1BC082FF0DC02E813F818C81D3
:101CE0009D812817390764F4E881F9810193F9830C
:101CF000E88306C0E885F985802F0995892B31F4A2
:101D00008E819F8101969F838E8302C00FEF1FEF0C
:101D1000C801DF91CF911F910F910895FA01AA2771
:101D2000283051F1203181F1E8946F936E7F6E5F1E
:101D30007F4F8F4F9F4FAF4FB1E03ED0B4E03CD0CC
:101D4000670F781F891F9A1FA11D680F791F8A1FAF
:101D5000911DA11D6A0F711D811D911DA11D20D016
:101D600009F468943F912AE0269F11243019305DD0
:101D70003193DEF6CF010895462F4770405D4193C1
:101D8000B3E00FD0C9F7F6CF462F4F70405D4A330E
:101D900018F0495D31FD4052419302D0A9F7EACFD6
:101DA000B4E0A6959795879577956795BA95C9F705
:101DB00000976105710508959B01AC010A2E0694F8
:101DC0005795479537952795BA95C9F7620F731FB1
:0C1DD000841F951FA01D0895F894FFCFFC
:101DDC002D0000257325642E253034640025640005
:101DEC0054656D7020697300430000000000000012
:101DFC0000000001020203030303040404040404AE
:101E0C000404050505050505050505050505050578
:101E1C000505060606060606060606060606060658
:101E2C000606060606060606060606060606060646
:101E3C000606070707070707070707070707070728
:101E4C000707070707070707070707070707070716
:101E5C000707070707070707070707070707070706
:101E6C0007070707070707070707070707070707F6
:101E7C0007070808080808080808080808080808D8
:101E8C0008080808080808080808080808080808C6
:101E9C0008080808080808080808080808080808B6
:101EAC0008080808080808080808080808080808A6
:101EBC000808080808080808080808080808080896
:101ECC000808080808080808080808080808080886
:101EDC000808080808080808080808080808080876
:101EEC000808080808080808080808080808080866
:101EFC00080854656D706572617475726500DF0059
:00000001FF
